{
  "contractName": "nUSD",
  "abi": [
    {
      "inputs": [],
      "stateMutability": "nonpayable",
      "type": "constructor"
    },
    {
      "anonymous": false,
      "inputs": [
        {
          "indexed": true,
          "internalType": "address",
          "name": "owner",
          "type": "address"
        },
        {
          "indexed": true,
          "internalType": "address",
          "name": "spender",
          "type": "address"
        },
        {
          "indexed": false,
          "internalType": "uint256",
          "name": "value",
          "type": "uint256"
        }
      ],
      "name": "Approval",
      "type": "event"
    },
    {
      "anonymous": false,
      "inputs": [
        {
          "indexed": true,
          "internalType": "address",
          "name": "from",
          "type": "address"
        },
        {
          "indexed": true,
          "internalType": "address",
          "name": "to",
          "type": "address"
        },
        {
          "indexed": false,
          "internalType": "uint256",
          "name": "value",
          "type": "uint256"
        }
      ],
      "name": "Transfer",
      "type": "event"
    },
    {
      "inputs": [
        {
          "internalType": "address",
          "name": "owner",
          "type": "address"
        },
        {
          "internalType": "address",
          "name": "spender",
          "type": "address"
        }
      ],
      "name": "allowance",
      "outputs": [
        {
          "internalType": "uint256",
          "name": "",
          "type": "uint256"
        }
      ],
      "stateMutability": "view",
      "type": "function"
    },
    {
      "inputs": [
        {
          "internalType": "address",
          "name": "spender",
          "type": "address"
        },
        {
          "internalType": "uint256",
          "name": "amount",
          "type": "uint256"
        }
      ],
      "name": "approve",
      "outputs": [
        {
          "internalType": "bool",
          "name": "",
          "type": "bool"
        }
      ],
      "stateMutability": "nonpayable",
      "type": "function"
    },
    {
      "inputs": [
        {
          "internalType": "address",
          "name": "account",
          "type": "address"
        }
      ],
      "name": "balanceOf",
      "outputs": [
        {
          "internalType": "uint256",
          "name": "",
          "type": "uint256"
        }
      ],
      "stateMutability": "view",
      "type": "function"
    },
    {
      "inputs": [],
      "name": "decimals",
      "outputs": [
        {
          "internalType": "uint8",
          "name": "",
          "type": "uint8"
        }
      ],
      "stateMutability": "view",
      "type": "function"
    },
    {
      "inputs": [
        {
          "internalType": "address",
          "name": "spender",
          "type": "address"
        },
        {
          "internalType": "uint256",
          "name": "subtractedValue",
          "type": "uint256"
        }
      ],
      "name": "decreaseAllowance",
      "outputs": [
        {
          "internalType": "bool",
          "name": "",
          "type": "bool"
        }
      ],
      "stateMutability": "nonpayable",
      "type": "function"
    },
    {
      "inputs": [],
      "name": "ethPrice",
      "outputs": [
        {
          "internalType": "uint256",
          "name": "",
          "type": "uint256"
        }
      ],
      "stateMutability": "view",
      "type": "function"
    },
    {
      "inputs": [
        {
          "internalType": "address",
          "name": "spender",
          "type": "address"
        },
        {
          "internalType": "uint256",
          "name": "addedValue",
          "type": "uint256"
        }
      ],
      "name": "increaseAllowance",
      "outputs": [
        {
          "internalType": "bool",
          "name": "",
          "type": "bool"
        }
      ],
      "stateMutability": "nonpayable",
      "type": "function"
    },
    {
      "inputs": [],
      "name": "name",
      "outputs": [
        {
          "internalType": "string",
          "name": "",
          "type": "string"
        }
      ],
      "stateMutability": "view",
      "type": "function"
    },
    {
      "inputs": [],
      "name": "priceFeed",
      "outputs": [
        {
          "internalType": "contract AggregatorV3Interface",
          "name": "",
          "type": "address"
        }
      ],
      "stateMutability": "view",
      "type": "function"
    },
    {
      "inputs": [],
      "name": "symbol",
      "outputs": [
        {
          "internalType": "string",
          "name": "",
          "type": "string"
        }
      ],
      "stateMutability": "view",
      "type": "function"
    },
    {
      "inputs": [],
      "name": "totalSupply",
      "outputs": [
        {
          "internalType": "uint256",
          "name": "",
          "type": "uint256"
        }
      ],
      "stateMutability": "view",
      "type": "function"
    },
    {
      "inputs": [
        {
          "internalType": "address",
          "name": "to",
          "type": "address"
        },
        {
          "internalType": "uint256",
          "name": "amount",
          "type": "uint256"
        }
      ],
      "name": "transfer",
      "outputs": [
        {
          "internalType": "bool",
          "name": "",
          "type": "bool"
        }
      ],
      "stateMutability": "nonpayable",
      "type": "function"
    },
    {
      "inputs": [
        {
          "internalType": "address",
          "name": "from",
          "type": "address"
        },
        {
          "internalType": "address",
          "name": "to",
          "type": "address"
        },
        {
          "internalType": "uint256",
          "name": "amount",
          "type": "uint256"
        }
      ],
      "name": "transferFrom",
      "outputs": [
        {
          "internalType": "bool",
          "name": "",
          "type": "bool"
        }
      ],
      "stateMutability": "nonpayable",
      "type": "function"
    },
    {
      "inputs": [
        {
          "internalType": "uint256",
          "name": "ethAmount",
          "type": "uint256"
        }
      ],
      "name": "depositETH",
      "outputs": [],
      "stateMutability": "payable",
      "type": "function"
    },
    {
      "inputs": [
        {
          "internalType": "uint256",
          "name": "nusdAmount",
          "type": "uint256"
        }
      ],
      "name": "redeemETH",
      "outputs": [],
      "stateMutability": "payable",
      "type": "function"
    }
  ],
  "bytecode": "0x60806040523480156200001157600080fd5b506040518060400160405280600d81526020017f6e6577537461626c65636f696e000000000000000000000000000000000000008152506040518060400160405280600481526020017f6e55534400000000000000000000000000000000000000000000000000000000815250816003908051906020019062000096929190620003ea565b508060049080519060200190620000af929190620003ea565b505050620000f133620000c76200015c60201b60201c565b600a620000d5919062000758565b62989680620000e5919062000895565b6200016560201b60201c565b73694aa1769357215de4fac081bf1f309adc325306600560006101000a81548173ffffffffffffffffffffffffffffffffffffffff021916908373ffffffffffffffffffffffffffffffffffffffff16021790555062000156620002d360201b60201c565b62000a4b565b60006012905090565b600073ffffffffffffffffffffffffffffffffffffffff168273ffffffffffffffffffffffffffffffffffffffff161415620001d8576040517f08c379a0000000000000000000000000000000000000000000000000000000008152600401620001cf9062000618565b60405180910390fd5b620001ec60008383620003e060201b60201c565b806002600082825462000200919062000668565b92505081905550806000808473ffffffffffffffffffffffffffffffffffffffff1673ffffffffffffffffffffffffffffffffffffffff168152602001908152602001600020600082825401925050819055508173ffffffffffffffffffffffffffffffffffffffff16600073ffffffffffffffffffffffffffffffffffffffff167fddf252ad1be2c89b69c2b068fc378daa952ba7f163c4a11628f55a4df523b3ef83604051620002b391906200063a565b60405180910390a3620002cf60008383620003e560201b60201c565b5050565b6000600560009054906101000a900473ffffffffffffffffffffffffffffffffffffffff1673ffffffffffffffffffffffffffffffffffffffff1663feaf968c6040518163ffffffff1660e01b815260040160a06040518083038186803b1580156200033e57600080fd5b505afa15801562000353573d6000803e3d6000fd5b505050506040513d601f19601f82011682018060405250810190620003799190620004df565b50505091505060008113620003c5576040517f08c379a0000000000000000000000000000000000000000000000000000000008152600401620003bc90620005f6565b60405180910390fd5b6305f5e10081620003d79190620006c5565b60068190555050565b505050565b505050565b828054620003f8906200092d565b90600052602060002090601f0160209004810192826200041c576000855562000468565b82601f106200043757805160ff191683800117855562000468565b8280016001018555821562000468579182015b82811115620004675782518255916020019190600101906200044a565b5b5090506200047791906200047b565b5090565b5b80821115620004965760008160009055506001016200047c565b5090565b600081519050620004ab81620009fd565b92915050565b600081519050620004c28162000a17565b92915050565b600081519050620004d98162000a31565b92915050565b600080600080600060a08688031215620004f857600080fd5b60006200050888828901620004c8565b95505060206200051b888289016200049a565b94505060406200052e88828901620004b1565b93505060606200054188828901620004b1565b92505060806200055488828901620004c8565b9150509295509295909350565b60006200057060118362000657565b91507f496e76616c6964204554482070726963650000000000000000000000000000006000830152602082019050919050565b6000620005b2601f8362000657565b91507f45524332303a206d696e7420746f20746865207a65726f2061646472657373006000830152602082019050919050565b620005f08162000900565b82525050565b60006020820190508181036000830152620006118162000561565b9050919050565b600060208201905081810360008301526200063381620005a3565b9050919050565b6000602082019050620006516000830184620005e5565b92915050565b600082825260208201905092915050565b6000620006758262000900565b9150620006828362000900565b9250827fffffffffffffffffffffffffffffffffffffffffffffffffffffffffffffffff03821115620006ba57620006b962000963565b5b828201905092915050565b6000620006d28262000900565b9150620006df8362000900565b925082620006f257620006f162000992565b5b828204905092915050565b6000808291508390505b60018511156200074f5780860481111562000727576200072662000963565b5b6001851615620007375780820291505b80810290506200074785620009f0565b945062000707565b94509492505050565b6000620007658262000900565b915062000772836200090a565b9250620007a17fffffffffffffffffffffffffffffffffffffffffffffffffffffffffffffffff8484620007a9565b905092915050565b600082620007bb57600190506200088e565b81620007cb57600090506200088e565b8160018114620007e45760028114620007ef5762000825565b60019150506200088e565b60ff84111562000804576200080362000963565b5b8360020a9150848211156200081e576200081d62000963565b5b506200088e565b5060208310610133831016604e8410600b84101617156200085f5782820a90508381111562000859576200085862000963565b5b6200088e565b6200086e8484846001620006fd565b9250905081840481111562000888576200088762000963565b5b81810290505b9392505050565b6000620008a28262000900565b9150620008af8362000900565b9250817fffffffffffffffffffffffffffffffffffffffffffffffffffffffffffffffff0483118215151615620008eb57620008ea62000963565b5b828202905092915050565b6000819050919050565b6000819050919050565b600060ff82169050919050565b600069ffffffffffffffffffff82169050919050565b600060028204905060018216806200094657607f821691505b602082108114156200095d576200095c620009c1565b5b50919050565b7f4e487b7100000000000000000000000000000000000000000000000000000000600052601160045260246000fd5b7f4e487b7100000000000000000000000000000000000000000000000000000000600052601260045260246000fd5b7f4e487b7100000000000000000000000000000000000000000000000000000000600052602260045260246000fd5b60008160011c9050919050565b62000a0881620008f6565b811462000a1457600080fd5b50565b62000a228162000900565b811462000a2e57600080fd5b50565b62000a3c8162000917565b811462000a4857600080fd5b50565b611d458062000a5b6000396000f3fe6080604052600436106100e85760003560e01c80635358fbda1161008a578063a457c2d711610059578063a457c2d7146102f0578063a9059cbb1461032d578063dd62ed3e1461036a578063ff186b2e146103a7576100e8565b80635358fbda1461024157806370a082311461025d578063741bef1a1461029a57806395d89b41146102c5576100e8565b806323b872dd116100c657806323b872dd14610180578063313ce567146101bd57806339509351146101e8578063525d02b814610225576100e8565b806306fdde03146100ed578063095ea7b31461011857806318160ddd14610155575b600080fd5b3480156100f957600080fd5b506101026103d2565b60405161010f9190611712565b60405180910390f35b34801561012457600080fd5b5061013f600480360381019061013a91906111d2565b610464565b60405161014c91906116dc565b60405180910390f35b34801561016157600080fd5b5061016a610487565b60405161017791906118b4565b60405180910390f35b34801561018c57600080fd5b506101a760048036038101906101a29190611183565b610491565b6040516101b491906116dc565b60405180910390f35b3480156101c957600080fd5b506101d26104c0565b6040516101df91906118cf565b60405180910390f35b3480156101f457600080fd5b5061020f600480360381019061020a91906111d2565b6104c9565b60405161021c91906116dc565b60405180910390f35b61023f600480360381019061023a919061120e565b610500565b005b61025b6004803603810190610256919061120e565b610624565b005b34801561026957600080fd5b50610284600480360381019061027f919061111e565b6106c7565b60405161029191906118b4565b60405180910390f35b3480156102a657600080fd5b506102af61070f565b6040516102bc91906116f7565b60405180910390f35b3480156102d157600080fd5b506102da610735565b6040516102e79190611712565b60405180910390f35b3480156102fc57600080fd5b50610317600480360381019061031291906111d2565b6107c7565b60405161032491906116dc565b60405180910390f35b34801561033957600080fd5b50610354600480360381019061034f91906111d2565b61083e565b60405161036191906116dc565b60405180910390f35b34801561037657600080fd5b50610391600480360381019061038c9190611147565b610861565b60405161039e91906118b4565b60405180910390f35b3480156103b357600080fd5b506103bc6108e8565b6040516103c991906118b4565b60405180910390f35b6060600380546103e190611c04565b80601f016020809104026020016040519081016040528092919081815260200182805461040d90611c04565b801561045a5780601f1061042f5761010080835404028352916020019161045a565b820191906000526020600020905b81548152906001019060200180831161043d57829003601f168201915b5050505050905090565b60008061046f6108ee565b905061047c8185856108f6565b600191505092915050565b6000600254905090565b60008061049c6108ee565b90506104a9858285610ac1565b6104b4858585610b4d565b60019150509392505050565b60006012905090565b6000806104d46108ee565b90506104f58185856104e68589610861565b6104f09190611906565b6108f6565b600191505092915050565b60008111610543576040517f08c379a000000000000000000000000000000000000000000000000000000000815260040161053a90611794565b60405180910390fd5b600060065482610553919061195c565b905080471015610598576040517f08c379a000000000000000000000000000000000000000000000000000000000815260040161058f906117f4565b60405180910390fd5b6105c0336105a46104c0565b600a6105b091906119e0565b846105bb9190611afe565b610dc5565b6000670de0b6b3a7640000826105d69190611afe565b90503373ffffffffffffffffffffffffffffffffffffffff166108fc829081150290604051600060405180830381858888f1935050505015801561061e573d6000803e3d6000fd5b50505050565b670de0b6b3a764000081610638919061195c565b90506000811161067d576040517f08c379a000000000000000000000000000000000000000000000000000000000815260040161067490611794565b60405180910390fd5b600060026006548361068f9190611afe565b610699919061195c565b90506106c3336106a76104c0565b600a6106b391906119e0565b836106be9190611afe565b610f93565b5050565b60008060008373ffffffffffffffffffffffffffffffffffffffff1673ffffffffffffffffffffffffffffffffffffffff168152602001908152602001600020549050919050565b600560009054906101000a900473ffffffffffffffffffffffffffffffffffffffff1681565b60606004805461074490611c04565b80601f016020809104026020016040519081016040528092919081815260200182805461077090611c04565b80156107bd5780601f10610792576101008083540402835291602001916107bd565b820191906000526020600020905b8154815290600101906020018083116107a057829003601f168201915b5050505050905090565b6000806107d26108ee565b905060006107e08286610861565b905083811015610825576040517f08c379a000000000000000000000000000000000000000000000000000000000815260040161081c90611874565b60405180910390fd5b61083282868684036108f6565b60019250505092915050565b6000806108496108ee565b9050610856818585610b4d565b600191505092915050565b6000600160008473ffffffffffffffffffffffffffffffffffffffff1673ffffffffffffffffffffffffffffffffffffffff16815260200190815260200160002060008373ffffffffffffffffffffffffffffffffffffffff1673ffffffffffffffffffffffffffffffffffffffff16815260200190815260200160002054905092915050565b60065481565b600033905090565b600073ffffffffffffffffffffffffffffffffffffffff168373ffffffffffffffffffffffffffffffffffffffff161415610966576040517f08c379a000000000000000000000000000000000000000000000000000000000815260040161095d90611854565b60405180910390fd5b600073ffffffffffffffffffffffffffffffffffffffff168273ffffffffffffffffffffffffffffffffffffffff1614156109d6576040517f08c379a00000000000000000000000000000000000000000000000000000000081526004016109cd90611774565b60405180910390fd5b80600160008573ffffffffffffffffffffffffffffffffffffffff1673ffffffffffffffffffffffffffffffffffffffff16815260200190815260200160002060008473ffffffffffffffffffffffffffffffffffffffff1673ffffffffffffffffffffffffffffffffffffffff168152602001908152602001600020819055508173ffffffffffffffffffffffffffffffffffffffff168373ffffffffffffffffffffffffffffffffffffffff167f8c5be1e5ebec7d5bd14f71427d1e84f3dd0314c0f7b2291e5b200ac8c7c3b92583604051610ab491906118b4565b60405180910390a3505050565b6000610acd8484610861565b90507fffffffffffffffffffffffffffffffffffffffffffffffffffffffffffffffff8114610b475781811015610b39576040517f08c379a0000000000000000000000000000000000000000000000000000000008152600401610b30906117b4565b60405180910390fd5b610b4684848484036108f6565b5b50505050565b600073ffffffffffffffffffffffffffffffffffffffff168373ffffffffffffffffffffffffffffffffffffffff161415610bbd576040517f08c379a0000000000000000000000000000000000000000000000000000000008152600401610bb490611834565b60405180910390fd5b600073ffffffffffffffffffffffffffffffffffffffff168273ffffffffffffffffffffffffffffffffffffffff161415610c2d576040517f08c379a0000000000000000000000000000000000000000000000000000000008152600401610c2490611734565b60405180910390fd5b610c388383836110ea565b60008060008573ffffffffffffffffffffffffffffffffffffffff1673ffffffffffffffffffffffffffffffffffffffff16815260200190815260200160002054905081811015610cbe576040517f08c379a0000000000000000000000000000000000000000000000000000000008152600401610cb5906117d4565b60405180910390fd5b8181036000808673ffffffffffffffffffffffffffffffffffffffff1673ffffffffffffffffffffffffffffffffffffffff16815260200190815260200160002081905550816000808573ffffffffffffffffffffffffffffffffffffffff1673ffffffffffffffffffffffffffffffffffffffff168152602001908152602001600020600082825401925050819055508273ffffffffffffffffffffffffffffffffffffffff168473ffffffffffffffffffffffffffffffffffffffff167fddf252ad1be2c89b69c2b068fc378daa952ba7f163c4a11628f55a4df523b3ef84604051610dac91906118b4565b60405180910390a3610dbf8484846110ef565b50505050565b600073ffffffffffffffffffffffffffffffffffffffff168273ffffffffffffffffffffffffffffffffffffffff161415610e35576040517f08c379a0000000000000000000000000000000000000000000000000000000008152600401610e2c90611814565b60405180910390fd5b610e41826000836110ea565b60008060008473ffffffffffffffffffffffffffffffffffffffff1673ffffffffffffffffffffffffffffffffffffffff16815260200190815260200160002054905081811015610ec7576040517f08c379a0000000000000000000000000000000000000000000000000000000008152600401610ebe90611754565b60405180910390fd5b8181036000808573ffffffffffffffffffffffffffffffffffffffff1673ffffffffffffffffffffffffffffffffffffffff1681526020019081526020016000208190555081600260008282540392505081905550600073ffffffffffffffffffffffffffffffffffffffff168373ffffffffffffffffffffffffffffffffffffffff167fddf252ad1be2c89b69c2b068fc378daa952ba7f163c4a11628f55a4df523b3ef84604051610f7a91906118b4565b60405180910390a3610f8e836000846110ef565b505050565b600073ffffffffffffffffffffffffffffffffffffffff168273ffffffffffffffffffffffffffffffffffffffff161415611003576040517f08c379a0000000000000000000000000000000000000000000000000000000008152600401610ffa90611894565b60405180910390fd5b61100f600083836110ea565b80600260008282546110219190611906565b92505081905550806000808473ffffffffffffffffffffffffffffffffffffffff1673ffffffffffffffffffffffffffffffffffffffff168152602001908152602001600020600082825401925050819055508173ffffffffffffffffffffffffffffffffffffffff16600073ffffffffffffffffffffffffffffffffffffffff167fddf252ad1be2c89b69c2b068fc378daa952ba7f163c4a11628f55a4df523b3ef836040516110d291906118b4565b60405180910390a36110e6600083836110ef565b5050565b505050565b505050565b60008135905061110381611ce1565b92915050565b60008135905061111881611cf8565b92915050565b60006020828403121561113057600080fd5b600061113e848285016110f4565b91505092915050565b6000806040838503121561115a57600080fd5b6000611168858286016110f4565b9250506020611179858286016110f4565b9150509250929050565b60008060006060848603121561119857600080fd5b60006111a6868287016110f4565b93505060206111b7868287016110f4565b92505060406111c886828701611109565b9150509250925092565b600080604083850312156111e557600080fd5b60006111f3858286016110f4565b925050602061120485828601611109565b9150509250929050565b60006020828403121561122057600080fd5b600061122e84828501611109565b91505092915050565b61124081611b6a565b82525050565b61124f81611bad565b82525050565b6000611260826118ea565b61126a81856118f5565b935061127a818560208601611bd1565b61128381611cc3565b840191505092915050565b600061129b6023836118f5565b91507f45524332303a207472616e7366657220746f20746865207a65726f206164647260008301527f65737300000000000000000000000000000000000000000000000000000000006020830152604082019050919050565b60006113016022836118f5565b91507f45524332303a206275726e20616d6f756e7420657863656564732062616c616e60008301527f63650000000000000000000000000000000000000000000000000000000000006020830152604082019050919050565b60006113676022836118f5565b91507f45524332303a20617070726f766520746f20746865207a65726f20616464726560008301527f73730000000000000000000000000000000000000000000000000000000000006020830152604082019050919050565b60006113cd6020836118f5565b91507f416d6f756e74206d7573742062652067726561746572207468616e207a65726f6000830152602082019050919050565b600061140d601d836118f5565b91507f45524332303a20696e73756666696369656e7420616c6c6f77616e63650000006000830152602082019050919050565b600061144d6026836118f5565b91507f45524332303a207472616e7366657220616d6f756e742065786365656473206260008301527f616c616e636500000000000000000000000000000000000000000000000000006020830152604082019050919050565b60006114b36019836118f5565b91507f496e73756666696369656e74206e5553442062616c616e6365000000000000006000830152602082019050919050565b60006114f36021836118f5565b91507f45524332303a206275726e2066726f6d20746865207a65726f2061646472657360008301527f73000000000000000000000000000000000000000000000000000000000000006020830152604082019050919050565b60006115596025836118f5565b91507f45524332303a207472616e736665722066726f6d20746865207a65726f20616460008301527f64726573730000000000000000000000000000000000000000000000000000006020830152604082019050919050565b60006115bf6024836118f5565b91507f45524332303a20617070726f76652066726f6d20746865207a65726f2061646460008301527f72657373000000000000000000000000000000000000000000000000000000006020830152604082019050919050565b60006116256025836118f5565b91507f45524332303a2064656372656173656420616c6c6f77616e63652062656c6f7760008301527f207a65726f0000000000000000000000000000000000000000000000000000006020830152604082019050919050565b600061168b601f836118f5565b91507f45524332303a206d696e7420746f20746865207a65726f2061646472657373006000830152602082019050919050565b6116c781611b96565b82525050565b6116d681611ba0565b82525050565b60006020820190506116f16000830184611237565b92915050565b600060208201905061170c6000830184611246565b92915050565b6000602082019050818103600083015261172c8184611255565b905092915050565b6000602082019050818103600083015261174d8161128e565b9050919050565b6000602082019050818103600083015261176d816112f4565b9050919050565b6000602082019050818103600083015261178d8161135a565b9050919050565b600060208201905081810360008301526117ad816113c0565b9050919050565b600060208201905081810360008301526117cd81611400565b9050919050565b600060208201905081810360008301526117ed81611440565b9050919050565b6000602082019050818103600083015261180d816114a6565b9050919050565b6000602082019050818103600083015261182d816114e6565b9050919050565b6000602082019050818103600083015261184d8161154c565b9050919050565b6000602082019050818103600083015261186d816115b2565b9050919050565b6000602082019050818103600083015261188d81611618565b9050919050565b600060208201905081810360008301526118ad8161167e565b9050919050565b60006020820190506118c960008301846116be565b92915050565b60006020820190506118e460008301846116cd565b92915050565b600081519050919050565b600082825260208201905092915050565b600061191182611b96565b915061191c83611b96565b9250827fffffffffffffffffffffffffffffffffffffffffffffffffffffffffffffffff0382111561195157611950611c36565b5b828201905092915050565b600061196782611b96565b915061197283611b96565b92508261198257611981611c65565b5b828204905092915050565b6000808291508390505b60018511156119d7578086048111156119b3576119b2611c36565b5b60018516156119c25780820291505b80810290506119d085611cd4565b9450611997565b94509492505050565b60006119eb82611b96565b91506119f683611ba0565b9250611a237fffffffffffffffffffffffffffffffffffffffffffffffffffffffffffffffff8484611a2b565b905092915050565b600082611a3b5760019050611af7565b81611a495760009050611af7565b8160018114611a5f5760028114611a6957611a98565b6001915050611af7565b60ff841115611a7b57611a7a611c36565b5b8360020a915084821115611a9257611a91611c36565b5b50611af7565b5060208310610133831016604e8410600b8410161715611acd5782820a905083811115611ac857611ac7611c36565b5b611af7565b611ada848484600161198d565b92509050818404811115611af157611af0611c36565b5b81810290505b9392505050565b6000611b0982611b96565b9150611b1483611b96565b9250817fffffffffffffffffffffffffffffffffffffffffffffffffffffffffffffffff0483118215151615611b4d57611b4c611c36565b5b828202905092915050565b6000611b6382611b76565b9050919050565b60008115159050919050565b600073ffffffffffffffffffffffffffffffffffffffff82169050919050565b6000819050919050565b600060ff82169050919050565b6000611bb882611bbf565b9050919050565b6000611bca82611b76565b9050919050565b60005b83811015611bef578082015181840152602081019050611bd4565b83811115611bfe576000848401525b50505050565b60006002820490506001821680611c1c57607f821691505b60208210811415611c3057611c2f611c94565b5b50919050565b7f4e487b7100000000000000000000000000000000000000000000000000000000600052601160045260246000fd5b7f4e487b7100000000000000000000000000000000000000000000000000000000600052601260045260246000fd5b7f4e487b7100000000000000000000000000000000000000000000000000000000600052602260045260246000fd5b6000601f19601f8301169050919050565b60008160011c9050919050565b611cea81611b58565b8114611cf557600080fd5b50565b611d0181611b96565b8114611d0c57600080fd5b5056fea2646970667358221220d8c8c93461b2dc18814c7f30315768504d505664ddfa32e740db892d476f3ed964736f6c63430008000033",
  "immutableReferences": {},
  "source": "// SPDX-License-Identifier: MIT\r\npragma solidity ^0.8.0;\r\nimport \"@openzeppelin/contracts/token/ERC20/ERC20.sol\";  //using oppen zepplin erc20 library\r\nimport \"./AggregatorV3Interface.sol\";\r\ncontract nUSD is ERC20 {\r\n    \r\n    AggregatorV3Interface public priceFeed;\r\n    uint256 public ethPrice;\r\n    \r\n   \r\n    constructor() ERC20(\"newStablecoin\", \"nUSD\") \r\n    {\r\n        _mint(msg.sender, 10000000 * (10**decimals()));  // initial supply minting using constructor\r\n        priceFeed=AggregatorV3Interface(0x694AA1769357215DE4FAC081bf1f309aDC325306);\r\n        updateEthPrice();\r\n    } \r\n\r\n\r\n    function updateEthPrice() internal {\r\n        (, int256 price, , , ) = priceFeed.latestRoundData();\r\n        require(price > 0, \"Invalid ETH price\");\r\n        ethPrice = uint256(price)/1e8;\r\n    }\r\n\r\n\r\n    function depositETH(uint ethAmount) public payable {\r\n        \r\n        ethAmount=ethAmount/1000000000000000000;\r\n        require(ethAmount> 0, \"Amount must be greater than zero\");\r\n         uint256 nusdAmount = (ethAmount * ethPrice)/2;          //token logic\r\n        _mint(msg.sender, nusdAmount * (10**decimals()));   //openzepplin mint function\r\n        \r\n        \r\n    }\r\n\r\n    function redeemETH(uint256 nusdAmount) public payable {\r\n        require(nusdAmount > 0, \"Amount must be greater than zero\");\r\n        uint256 ethAmount = (nusdAmount/ethPrice);   //token logic\r\n        require(address(this).balance >= ethAmount, \"Insufficient nUSD balance\");\r\n         _burn(msg.sender, nusdAmount * (10**decimals())); //openzepplin burn function\r\n        uint ethToUser=ethAmount*1000000000000000000;\r\n        payable(msg.sender).transfer(ethToUser);\r\n        \r\n    }\r\n   \r\n}",
  "sourcePath": "C:\\Users\\abhig\\OneDrive\\Desktop\\project\\contracts\\nUSD.sol",
  "compiler": {
    "name": "solc",
    "version": "0.8.0+commit.c7dfd78e.Emscripten.clang"
  },
  "schemaVersion": "3.4.14",
  "updatedAt": "2023-06-30T04:41:47.778Z",
  "devdoc": {
    "kind": "dev",
    "methods": {
      "allowance(address,address)": {
        "details": "See {IERC20-allowance}."
      },
      "approve(address,uint256)": {
        "details": "See {IERC20-approve}. NOTE: If `amount` is the maximum `uint256`, the allowance is not updated on `transferFrom`. This is semantically equivalent to an infinite approval. Requirements: - `spender` cannot be the zero address."
      },
      "balanceOf(address)": {
        "details": "See {IERC20-balanceOf}."
      },
      "decimals()": {
        "details": "Returns the number of decimals used to get its user representation. For example, if `decimals` equals `2`, a balance of `505` tokens should be displayed to a user as `5.05` (`505 / 10 ** 2`). Tokens usually opt for a value of 18, imitating the relationship between Ether and Wei. This is the default value returned by this function, unless it's overridden. NOTE: This information is only used for _display_ purposes: it in no way affects any of the arithmetic of the contract, including {IERC20-balanceOf} and {IERC20-transfer}."
      },
      "decreaseAllowance(address,uint256)": {
        "details": "Atomically decreases the allowance granted to `spender` by the caller. This is an alternative to {approve} that can be used as a mitigation for problems described in {IERC20-approve}. Emits an {Approval} event indicating the updated allowance. Requirements: - `spender` cannot be the zero address. - `spender` must have allowance for the caller of at least `subtractedValue`."
      },
      "increaseAllowance(address,uint256)": {
        "details": "Atomically increases the allowance granted to `spender` by the caller. This is an alternative to {approve} that can be used as a mitigation for problems described in {IERC20-approve}. Emits an {Approval} event indicating the updated allowance. Requirements: - `spender` cannot be the zero address."
      },
      "name()": {
        "details": "Returns the name of the token."
      },
      "symbol()": {
        "details": "Returns the symbol of the token, usually a shorter version of the name."
      },
      "totalSupply()": {
        "details": "See {IERC20-totalSupply}."
      },
      "transfer(address,uint256)": {
        "details": "See {IERC20-transfer}. Requirements: - `to` cannot be the zero address. - the caller must have a balance of at least `amount`."
      },
      "transferFrom(address,address,uint256)": {
        "details": "See {IERC20-transferFrom}. Emits an {Approval} event indicating the updated allowance. This is not required by the EIP. See the note at the beginning of {ERC20}. NOTE: Does not update the allowance if the current allowance is the maximum `uint256`. Requirements: - `from` and `to` cannot be the zero address. - `from` must have a balance of at least `amount`. - the caller must have allowance for ``from``'s tokens of at least `amount`."
      }
    },
    "version": 1
  },
  "userdoc": {
    "kind": "user",
    "methods": {},
    "version": 1
  }
}